{
  "_format": "hh-sol-artifact-1",
  "contractName": "TurboRacers",
  "sourceName": "contracts/TurboRacers.sol",
  "abi": [
    {
      "inputs": [],
      "stateMutability": "nonpayable",
      "type": "constructor"
    },
    {
      "inputs": [
        {
          "internalType": "address",
          "name": "sender",
          "type": "address"
        },
        {
          "internalType": "uint256",
          "name": "tokenId",
          "type": "uint256"
        },
        {
          "internalType": "address",
          "name": "owner",
          "type": "address"
        }
      ],
      "name": "ERC721IncorrectOwner",
      "type": "error"
    },
    {
      "inputs": [
        {
          "internalType": "address",
          "name": "operator",
          "type": "address"
        },
        {
          "internalType": "uint256",
          "name": "tokenId",
          "type": "uint256"
        }
      ],
      "name": "ERC721InsufficientApproval",
      "type": "error"
    },
    {
      "inputs": [
        {
          "internalType": "address",
          "name": "approver",
          "type": "address"
        }
      ],
      "name": "ERC721InvalidApprover",
      "type": "error"
    },
    {
      "inputs": [
        {
          "internalType": "address",
          "name": "operator",
          "type": "address"
        }
      ],
      "name": "ERC721InvalidOperator",
      "type": "error"
    },
    {
      "inputs": [
        {
          "internalType": "address",
          "name": "owner",
          "type": "address"
        }
      ],
      "name": "ERC721InvalidOwner",
      "type": "error"
    },
    {
      "inputs": [
        {
          "internalType": "address",
          "name": "receiver",
          "type": "address"
        }
      ],
      "name": "ERC721InvalidReceiver",
      "type": "error"
    },
    {
      "inputs": [
        {
          "internalType": "address",
          "name": "sender",
          "type": "address"
        }
      ],
      "name": "ERC721InvalidSender",
      "type": "error"
    },
    {
      "inputs": [
        {
          "internalType": "uint256",
          "name": "tokenId",
          "type": "uint256"
        }
      ],
      "name": "ERC721NonexistentToken",
      "type": "error"
    },
    {
      "inputs": [
        {
          "internalType": "address",
          "name": "owner",
          "type": "address"
        }
      ],
      "name": "OwnableInvalidOwner",
      "type": "error"
    },
    {
      "inputs": [
        {
          "internalType": "address",
          "name": "account",
          "type": "address"
        }
      ],
      "name": "OwnableUnauthorizedAccount",
      "type": "error"
    },
    {
      "anonymous": false,
      "inputs": [
        {
          "indexed": true,
          "internalType": "address",
          "name": "owner",
          "type": "address"
        },
        {
          "indexed": true,
          "internalType": "address",
          "name": "approved",
          "type": "address"
        },
        {
          "indexed": true,
          "internalType": "uint256",
          "name": "tokenId",
          "type": "uint256"
        }
      ],
      "name": "Approval",
      "type": "event"
    },
    {
      "anonymous": false,
      "inputs": [
        {
          "indexed": true,
          "internalType": "address",
          "name": "owner",
          "type": "address"
        },
        {
          "indexed": true,
          "internalType": "address",
          "name": "operator",
          "type": "address"
        },
        {
          "indexed": false,
          "internalType": "bool",
          "name": "approved",
          "type": "bool"
        }
      ],
      "name": "ApprovalForAll",
      "type": "event"
    },
    {
      "anonymous": false,
      "inputs": [
        {
          "indexed": true,
          "internalType": "address",
          "name": "previousOwner",
          "type": "address"
        },
        {
          "indexed": true,
          "internalType": "address",
          "name": "newOwner",
          "type": "address"
        }
      ],
      "name": "OwnershipTransferred",
      "type": "event"
    },
    {
      "anonymous": false,
      "inputs": [
        {
          "indexed": true,
          "internalType": "uint256",
          "name": "id",
          "type": "uint256"
        },
        {
          "indexed": false,
          "internalType": "uint256",
          "name": "oldPrice",
          "type": "uint256"
        },
        {
          "indexed": false,
          "internalType": "uint256",
          "name": "newPrice",
          "type": "uint256"
        },
        {
          "indexed": true,
          "internalType": "address",
          "name": "by",
          "type": "address"
        }
      ],
      "name": "PriceUpdated",
      "type": "event"
    },
    {
      "anonymous": false,
      "inputs": [
        {
          "indexed": true,
          "internalType": "address",
          "name": "previousUpdater",
          "type": "address"
        },
        {
          "indexed": true,
          "internalType": "address",
          "name": "newUpdater",
          "type": "address"
        }
      ],
      "name": "PriceUpdaterChanged",
      "type": "event"
    },
    {
      "anonymous": false,
      "inputs": [
        {
          "indexed": true,
          "internalType": "address",
          "name": "from",
          "type": "address"
        },
        {
          "indexed": true,
          "internalType": "address",
          "name": "to",
          "type": "address"
        },
        {
          "indexed": true,
          "internalType": "uint256",
          "name": "tokenId",
          "type": "uint256"
        }
      ],
      "name": "Transfer",
      "type": "event"
    },
    {
      "inputs": [
        {
          "internalType": "address",
          "name": "to",
          "type": "address"
        },
        {
          "internalType": "uint256",
          "name": "tokenId",
          "type": "uint256"
        }
      ],
      "name": "approve",
      "outputs": [],
      "stateMutability": "nonpayable",
      "type": "function"
    },
    {
      "inputs": [
        {
          "internalType": "address",
          "name": "owner",
          "type": "address"
        }
      ],
      "name": "balanceOf",
      "outputs": [
        {
          "internalType": "uint256",
          "name": "",
          "type": "uint256"
        }
      ],
      "stateMutability": "view",
      "type": "function"
    },
    {
      "inputs": [],
      "name": "getAllRacerIds",
      "outputs": [
        {
          "internalType": "uint256[]",
          "name": "",
          "type": "uint256[]"
        }
      ],
      "stateMutability": "view",
      "type": "function"
    },
    {
      "inputs": [
        {
          "internalType": "uint256",
          "name": "tokenId",
          "type": "uint256"
        }
      ],
      "name": "getApproved",
      "outputs": [
        {
          "internalType": "address",
          "name": "",
          "type": "address"
        }
      ],
      "stateMutability": "view",
      "type": "function"
    },
    {
      "inputs": [
        {
          "internalType": "uint256",
          "name": "id",
          "type": "uint256"
        }
      ],
      "name": "getRacer",
      "outputs": [
        {
          "internalType": "uint256",
          "name": "",
          "type": "uint256"
        },
        {
          "internalType": "address",
          "name": "",
          "type": "address"
        },
        {
          "internalType": "string",
          "name": "",
          "type": "string"
        },
        {
          "internalType": "uint8",
          "name": "",
          "type": "uint8"
        },
        {
          "internalType": "uint8",
          "name": "",
          "type": "uint8"
        },
        {
          "internalType": "uint8",
          "name": "",
          "type": "uint8"
        },
        {
          "internalType": "uint8",
          "name": "",
          "type": "uint8"
        },
        {
          "internalType": "uint8[5]",
          "name": "",
          "type": "uint8[5]"
        },
        {
          "internalType": "uint8[3]",
          "name": "",
          "type": "uint8[3]"
        },
        {
          "internalType": "uint256",
          "name": "",
          "type": "uint256"
        }
      ],
      "stateMutability": "view",
      "type": "function"
    },
    {
      "inputs": [
        {
          "internalType": "address",
          "name": "owner",
          "type": "address"
        },
        {
          "internalType": "address",
          "name": "operator",
          "type": "address"
        }
      ],
      "name": "isApprovedForAll",
      "outputs": [
        {
          "internalType": "bool",
          "name": "",
          "type": "bool"
        }
      ],
      "stateMutability": "view",
      "type": "function"
    },
    {
      "inputs": [
        {
          "internalType": "address",
          "name": "_to",
          "type": "address"
        },
        {
          "internalType": "uint256",
          "name": "_id",
          "type": "uint256"
        },
        {
          "internalType": "string",
          "name": "_name",
          "type": "string"
        },
        {
          "internalType": "uint8",
          "name": "_speed",
          "type": "uint8"
        },
        {
          "internalType": "uint8",
          "name": "_aggression",
          "type": "uint8"
        },
        {
          "internalType": "uint8",
          "name": "_handling",
          "type": "uint8"
        },
        {
          "internalType": "uint8",
          "name": "_tyreManagement",
          "type": "uint8"
        },
        {
          "internalType": "uint8[5]",
          "name": "_favTracks",
          "type": "uint8[5]"
        },
        {
          "internalType": "uint8[3]",
          "name": "_favConditions",
          "type": "uint8[3]"
        },
        {
          "internalType": "uint256",
          "name": "_initialPrice",
          "type": "uint256"
        }
      ],
      "name": "mintRacer",
      "outputs": [],
      "stateMutability": "nonpayable",
      "type": "function"
    },
    {
      "inputs": [],
      "name": "name",
      "outputs": [
        {
          "internalType": "string",
          "name": "",
          "type": "string"
        }
      ],
      "stateMutability": "view",
      "type": "function"
    },
    {
      "inputs": [],
      "name": "owner",
      "outputs": [
        {
          "internalType": "address",
          "name": "",
          "type": "address"
        }
      ],
      "stateMutability": "view",
      "type": "function"
    },
    {
      "inputs": [
        {
          "internalType": "uint256",
          "name": "tokenId",
          "type": "uint256"
        }
      ],
      "name": "ownerOf",
      "outputs": [
        {
          "internalType": "address",
          "name": "",
          "type": "address"
        }
      ],
      "stateMutability": "view",
      "type": "function"
    },
    {
      "inputs": [],
      "name": "priceUpdater",
      "outputs": [
        {
          "internalType": "address",
          "name": "",
          "type": "address"
        }
      ],
      "stateMutability": "view",
      "type": "function"
    },
    {
      "inputs": [],
      "name": "renounceOwnership",
      "outputs": [],
      "stateMutability": "nonpayable",
      "type": "function"
    },
    {
      "inputs": [
        {
          "internalType": "address",
          "name": "from",
          "type": "address"
        },
        {
          "internalType": "address",
          "name": "to",
          "type": "address"
        },
        {
          "internalType": "uint256",
          "name": "tokenId",
          "type": "uint256"
        }
      ],
      "name": "safeTransferFrom",
      "outputs": [],
      "stateMutability": "nonpayable",
      "type": "function"
    },
    {
      "inputs": [
        {
          "internalType": "address",
          "name": "from",
          "type": "address"
        },
        {
          "internalType": "address",
          "name": "to",
          "type": "address"
        },
        {
          "internalType": "uint256",
          "name": "tokenId",
          "type": "uint256"
        },
        {
          "internalType": "bytes",
          "name": "data",
          "type": "bytes"
        }
      ],
      "name": "safeTransferFrom",
      "outputs": [],
      "stateMutability": "nonpayable",
      "type": "function"
    },
    {
      "inputs": [
        {
          "internalType": "address",
          "name": "operator",
          "type": "address"
        },
        {
          "internalType": "bool",
          "name": "approved",
          "type": "bool"
        }
      ],
      "name": "setApprovalForAll",
      "outputs": [],
      "stateMutability": "nonpayable",
      "type": "function"
    },
    {
      "inputs": [
        {
          "internalType": "address",
          "name": "_updater",
          "type": "address"
        }
      ],
      "name": "setPriceUpdater",
      "outputs": [],
      "stateMutability": "nonpayable",
      "type": "function"
    },
    {
      "inputs": [
        {
          "internalType": "bytes4",
          "name": "interfaceId",
          "type": "bytes4"
        }
      ],
      "name": "supportsInterface",
      "outputs": [
        {
          "internalType": "bool",
          "name": "",
          "type": "bool"
        }
      ],
      "stateMutability": "view",
      "type": "function"
    },
    {
      "inputs": [],
      "name": "symbol",
      "outputs": [
        {
          "internalType": "string",
          "name": "",
          "type": "string"
        }
      ],
      "stateMutability": "view",
      "type": "function"
    },
    {
      "inputs": [
        {
          "internalType": "uint256",
          "name": "tokenId",
          "type": "uint256"
        }
      ],
      "name": "tokenURI",
      "outputs": [
        {
          "internalType": "string",
          "name": "",
          "type": "string"
        }
      ],
      "stateMutability": "view",
      "type": "function"
    },
    {
      "inputs": [
        {
          "internalType": "address",
          "name": "from",
          "type": "address"
        },
        {
          "internalType": "address",
          "name": "to",
          "type": "address"
        },
        {
          "internalType": "uint256",
          "name": "tokenId",
          "type": "uint256"
        }
      ],
      "name": "transferFrom",
      "outputs": [],
      "stateMutability": "nonpayable",
      "type": "function"
    },
    {
      "inputs": [
        {
          "internalType": "address",
          "name": "newOwner",
          "type": "address"
        }
      ],
      "name": "transferOwnership",
      "outputs": [],
      "stateMutability": "nonpayable",
      "type": "function"
    },
    {
      "inputs": [
        {
          "internalType": "uint256",
          "name": "id",
          "type": "uint256"
        },
        {
          "internalType": "uint256",
          "name": "newPrice",
          "type": "uint256"
        }
      ],
      "name": "updatePrice",
      "outputs": [],
      "stateMutability": "nonpayable",
      "type": "function"
    }
  ],
  "bytecode": "0x60806040523480156200001157600080fd5b50336040518060400160405280600b81526020017f547572626f5261636572730000000000000000000000000000000000000000008152506040518060400160405280600381526020017f52435200000000000000000000000000000000000000000000000000000000008152508160009081620000909190620004b3565b508060019081620000a29190620004b3565b505050600073ffffffffffffffffffffffffffffffffffffffff168173ffffffffffffffffffffffffffffffffffffffff16036200011a5760006040517f1e4fbdf7000000000000000000000000000000000000000000000000000000008152600401620001119190620005df565b60405180910390fd5b6200012b816200017360201b60201c565b5033600960006101000a81548173ffffffffffffffffffffffffffffffffffffffff021916908373ffffffffffffffffffffffffffffffffffffffff160217905550620005fc565b6000600660009054906101000a900473ffffffffffffffffffffffffffffffffffffffff16905081600660006101000a81548173ffffffffffffffffffffffffffffffffffffffff021916908373ffffffffffffffffffffffffffffffffffffffff1602179055508173ffffffffffffffffffffffffffffffffffffffff168173ffffffffffffffffffffffffffffffffffffffff167f8be0079c531659141344cd1fd0a4f28419497f9722a3daafe3b4186f6b6457e060405160405180910390a35050565b600081519050919050565b7f4e487b7100000000000000000000000000000000000000000000000000000000600052604160045260246000fd5b7f4e487b7100000000000000000000000000000000000000000000000000000000600052602260045260246000fd5b60006002820490506001821680620002bb57607f821691505b602082108103620002d157620002d062000273565b5b50919050565b60008190508160005260206000209050919050565b60006020601f8301049050919050565b600082821b905092915050565b6000600883026200033b7fffffffffffffffffffffffffffffffffffffffffffffffffffffffffffffffff82620002fc565b620003478683620002fc565b95508019841693508086168417925050509392505050565b6000819050919050565b6000819050919050565b6000620003946200038e62000388846200035f565b62000369565b6200035f565b9050919050565b6000819050919050565b620003b08362000373565b620003c8620003bf826200039b565b84845462000309565b825550505050565b600090565b620003df620003d0565b620003ec818484620003a5565b505050565b5b81811015620004145762000408600082620003d5565b600181019050620003f2565b5050565b601f82111562000463576200042d81620002d7565b6200043884620002ec565b8101602085101562000448578190505b620004606200045785620002ec565b830182620003f1565b50505b505050565b600082821c905092915050565b6000620004886000198460080262000468565b1980831691505092915050565b6000620004a3838362000475565b9150826002028217905092915050565b620004be8262000239565b67ffffffffffffffff811115620004da57620004d962000244565b5b620004e68254620002a2565b620004f382828562000418565b600060209050601f8311600181146200052b576000841562000516578287015190505b62000522858262000495565b86555062000592565b601f1984166200053b86620002d7565b60005b8281101562000565578489015182556001820191506020850194506020810190506200053e565b8683101562000585578489015162000581601f89168262000475565b8355505b6001600288020188555050505b505050505050565b600073ffffffffffffffffffffffffffffffffffffffff82169050919050565b6000620005c7826200059a565b9050919050565b620005d981620005ba565b82525050565b6000602082019050620005f66000830184620005ce565b92915050565b61323e806200060c6000396000f3fe608060405234801561001057600080fd5b50600436106101425760003560e01c80638da5cb5b116100b8578063b88d4fde1161007c578063b88d4fde14610368578063c87b56dd14610384578063e985e9c5146103b4578063ee8e1bb0146103e4578063f2fde38b14610402578063fc612a8d1461041e57610142565b80638da5cb5b146102bb57806392af0633146102d957806395d89b411461031257806397c4a5f314610330578063a22cb4651461034c57610142565b806342842e0e1161010a57806342842e0e146101fd5780636352211e1461021957806370a0823114610249578063715018a6146102795780637cbc39381461028357806382367b2d1461029f57610142565b806301ffc9a71461014757806306fdde0314610177578063081812fc14610195578063095ea7b3146101c557806323b872dd146101e1575b600080fd5b610161600480360381019061015c9190612138565b61043c565b60405161016e9190612180565b60405180910390f35b61017f61044e565b60405161018c919061222b565b60405180910390f35b6101af60048036038101906101aa9190612283565b6104e0565b6040516101bc91906122f1565b60405180910390f35b6101df60048036038101906101da9190612338565b6104fc565b005b6101fb60048036038101906101f69190612378565b610512565b005b61021760048036038101906102129190612378565b610614565b005b610233600480360381019061022e9190612283565b610634565b60405161024091906122f1565b60405180910390f35b610263600480360381019061025e91906123cb565b610646565b6040516102709190612407565b60405180910390f35b610281610700565b005b61029d600480360381019061029891906126f7565b610714565b005b6102b960048036038101906102b491906127f2565b61088b565b005b6102c36109ee565b6040516102d091906122f1565b60405180910390f35b6102f360048036038101906102ee9190612283565b610a18565b6040516103099a99989796959493929190612970565b60405180910390f35b61031a610c31565b604051610327919061222b565b60405180910390f35b61034a600480360381019061034591906123cb565b610cc3565b005b61036660048036038101906103619190612a3f565b610d91565b005b610382600480360381019061037d9190612b20565b610da7565b005b61039e60048036038101906103999190612283565b610dcc565b6040516103ab919061222b565b60405180910390f35b6103ce60048036038101906103c99190612ba3565b610e35565b6040516103db9190612180565b60405180910390f35b6103ec610ec9565b6040516103f99190612ca1565b60405180910390f35b61041c600480360381019061041791906123cb565b610f21565b005b610426610fa7565b60405161043391906122f1565b60405180910390f35b600061044782610fcd565b9050919050565b60606000805461045d90612cf2565b80601f016020809104026020016040519081016040528092919081815260200182805461048990612cf2565b80156104d65780601f106104ab576101008083540402835291602001916104d6565b820191906000526020600020905b8154815290600101906020018083116104b957829003601f168201915b5050505050905090565b60006104eb826110af565b506104f582611137565b9050919050565b61050e8282610509611174565b61117c565b5050565b600073ffffffffffffffffffffffffffffffffffffffff168273ffffffffffffffffffffffffffffffffffffffff16036105845760006040517f64a0ae9200000000000000000000000000000000000000000000000000000000815260040161057b91906122f1565b60405180910390fd5b60006105988383610593611174565b61118e565b90508373ffffffffffffffffffffffffffffffffffffffff168173ffffffffffffffffffffffffffffffffffffffff161461060e578382826040517f64283d7b00000000000000000000000000000000000000000000000000000000815260040161060593929190612d23565b60405180910390fd5b50505050565b61062f83838360405180602001604052806000815250610da7565b505050565b600061063f826110af565b9050919050565b60008073ffffffffffffffffffffffffffffffffffffffff168273ffffffffffffffffffffffffffffffffffffffff16036106b95760006040517f89c62b640000000000000000000000000000000000000000000000000000000081526004016106b091906122f1565b60405180910390fd5b600360008373ffffffffffffffffffffffffffffffffffffffff1673ffffffffffffffffffffffffffffffffffffffff168152602001908152602001600020549050919050565b6107086113a8565b610712600061142f565b565b61071c6113a8565b6107268a8a6114f5565b60088990806001815401808255809150506001900390600052602060002001600090919091909150556040518061010001604052808981526020018860ff1681526020018760ff1681526020018660ff1681526020018560ff16815260200184815260200183815260200182815250600760008b815260200190815260200160002060008201518160000190816107bd9190612f06565b5060208201518160010160006101000a81548160ff021916908360ff16021790555060408201518160010160016101000a81548160ff021916908360ff16021790555060608201518160010160026101000a81548160ff021916908360ff16021790555060808201518160010160036101000a81548160ff021916908360ff16021790555060a082015181600201906005610859929190611f37565b5060c082015181600301906003610871929190611fd1565b5060e0820151816004015590505050505050505050505050565b6108936109ee565b73ffffffffffffffffffffffffffffffffffffffff163373ffffffffffffffffffffffffffffffffffffffff1614806109195750600960009054906101000a900473ffffffffffffffffffffffffffffffffffffffff1673ffffffffffffffffffffffffffffffffffffffff163373ffffffffffffffffffffffffffffffffffffffff16145b610958576040517f08c379a000000000000000000000000000000000000000000000000000000000815260040161094f90613024565b60405180910390fd5b610961826110af565b506000600760008481526020019081526020016000206004015490508160076000858152602001908152602001600020600401819055503373ffffffffffffffffffffffffffffffffffffffff16837f4f0aa5fab7aa20059cc56368985fcf440c02c1d0229156bcfefad462cae1893d83856040516109e1929190613044565b60405180910390a3505050565b6000600660009054906101000a900473ffffffffffffffffffffffffffffffffffffffff16905090565b6000806060600080600080610a2b61206b565b610a3361208d565b6000610a3e8b6110af565b506000600760008d815260200190815260200160002090508b610a608d610634565b826000018360010160009054906101000a900460ff168460010160019054906101000a900460ff168560010160029054906101000a900460ff168660010160039054906101000a900460ff1687600201886003018960040154878054610ac590612cf2565b80601f0160208091040260200160405190810160405280929190818152602001828054610af190612cf2565b8015610b3e5780601f10610b1357610100808354040283529160200191610b3e565b820191906000526020600020905b815481529060010190602001808311610b2157829003601f168201915b5050505050975082600580602002604051908101604052809291908260058015610ba3576020028201916000905b82829054906101000a900460ff1660ff1681526020019060010190602082600001049283019260010382029150808411610b6c5790505b5050505050925081600380602002604051908101604052809291908260038015610c08576020028201916000905b82829054906101000a900460ff1660ff1681526020019060010190602082600001049283019260010382029150808411610bd15790505b505050505091509a509a509a509a509a509a509a509a509a509a50509193959799509193959799565b606060018054610c4090612cf2565b80601f0160208091040260200160405190810160405280929190818152602001828054610c6c90612cf2565b8015610cb95780601f10610c8e57610100808354040283529160200191610cb9565b820191906000526020600020905b815481529060010190602001808311610c9c57829003601f168201915b5050505050905090565b610ccb6113a8565b6000600960009054906101000a900473ffffffffffffffffffffffffffffffffffffffff16905081600960006101000a81548173ffffffffffffffffffffffffffffffffffffffff021916908373ffffffffffffffffffffffffffffffffffffffff1602179055508173ffffffffffffffffffffffffffffffffffffffff168173ffffffffffffffffffffffffffffffffffffffff167fba4f0caaa7dc549eceeaded00e5639f278ee9cdb8ee6027985947274d2330bb860405160405180910390a35050565b610da3610d9c611174565b83836115ee565b5050565b610db2848484610512565b610dc6610dbd611174565b8585858561175d565b50505050565b6060610dd7826110af565b506000610de261190e565b90506000815111610e025760405180602001604052806000815250610e2d565b80610e0c84611925565b604051602001610e1d9291906130a9565b6040516020818303038152906040525b915050919050565b6000600560008473ffffffffffffffffffffffffffffffffffffffff1673ffffffffffffffffffffffffffffffffffffffff16815260200190815260200160002060008373ffffffffffffffffffffffffffffffffffffffff1673ffffffffffffffffffffffffffffffffffffffff16815260200190815260200160002060009054906101000a900460ff16905092915050565b60606008805480602002602001604051908101604052809291908181526020018280548015610f1757602002820191906000526020600020905b815481526020019060010190808311610f03575b5050505050905090565b610f296113a8565b600073ffffffffffffffffffffffffffffffffffffffff168173ffffffffffffffffffffffffffffffffffffffff1603610f9b5760006040517f1e4fbdf7000000000000000000000000000000000000000000000000000000008152600401610f9291906122f1565b60405180910390fd5b610fa48161142f565b50565b600960009054906101000a900473ffffffffffffffffffffffffffffffffffffffff1681565b60007f80ac58cd000000000000000000000000000000000000000000000000000000007bffffffffffffffffffffffffffffffffffffffffffffffffffffffff1916827bffffffffffffffffffffffffffffffffffffffffffffffffffffffff1916148061109857507f5b5e139f000000000000000000000000000000000000000000000000000000007bffffffffffffffffffffffffffffffffffffffffffffffffffffffff1916827bffffffffffffffffffffffffffffffffffffffffffffffffffffffff1916145b806110a857506110a7826119f3565b5b9050919050565b6000806110bb83611a5d565b9050600073ffffffffffffffffffffffffffffffffffffffff168173ffffffffffffffffffffffffffffffffffffffff160361112e57826040517f7e2732890000000000000000000000000000000000000000000000000000000081526004016111259190612407565b60405180910390fd5b80915050919050565b60006004600083815260200190815260200160002060009054906101000a900473ffffffffffffffffffffffffffffffffffffffff169050919050565b600033905090565b6111898383836001611a9a565b505050565b60008061119a84611a5d565b9050600073ffffffffffffffffffffffffffffffffffffffff168373ffffffffffffffffffffffffffffffffffffffff16146111dc576111db818486611c5f565b5b600073ffffffffffffffffffffffffffffffffffffffff168173ffffffffffffffffffffffffffffffffffffffff161461126d5761121e600085600080611a9a565b6001600360008373ffffffffffffffffffffffffffffffffffffffff1673ffffffffffffffffffffffffffffffffffffffff168152602001908152602001600020600082825403925050819055505b600073ffffffffffffffffffffffffffffffffffffffff168573ffffffffffffffffffffffffffffffffffffffff16146112f0576001600360008773ffffffffffffffffffffffffffffffffffffffff1673ffffffffffffffffffffffffffffffffffffffff168152602001908152602001600020600082825401925050819055505b846002600086815260200190815260200160002060006101000a81548173ffffffffffffffffffffffffffffffffffffffff021916908373ffffffffffffffffffffffffffffffffffffffff160217905550838573ffffffffffffffffffffffffffffffffffffffff168273ffffffffffffffffffffffffffffffffffffffff167fddf252ad1be2c89b69c2b068fc378daa952ba7f163c4a11628f55a4df523b3ef60405160405180910390a4809150509392505050565b6113b0611174565b73ffffffffffffffffffffffffffffffffffffffff166113ce6109ee565b73ffffffffffffffffffffffffffffffffffffffff161461142d576113f1611174565b6040517f118cdaa700000000000000000000000000000000000000000000000000000000815260040161142491906122f1565b60405180910390fd5b565b6000600660009054906101000a900473ffffffffffffffffffffffffffffffffffffffff16905081600660006101000a81548173ffffffffffffffffffffffffffffffffffffffff021916908373ffffffffffffffffffffffffffffffffffffffff1602179055508173ffffffffffffffffffffffffffffffffffffffff168173ffffffffffffffffffffffffffffffffffffffff167f8be0079c531659141344cd1fd0a4f28419497f9722a3daafe3b4186f6b6457e060405160405180910390a35050565b600073ffffffffffffffffffffffffffffffffffffffff168273ffffffffffffffffffffffffffffffffffffffff16036115675760006040517f64a0ae9200000000000000000000000000000000000000000000000000000000815260040161155e91906122f1565b60405180910390fd5b60006115758383600061118e565b9050600073ffffffffffffffffffffffffffffffffffffffff168173ffffffffffffffffffffffffffffffffffffffff16146115e95760006040517f73c6ac6e0000000000000000000000000000000000000000000000000000000081526004016115e091906122f1565b60405180910390fd5b505050565b600073ffffffffffffffffffffffffffffffffffffffff168273ffffffffffffffffffffffffffffffffffffffff160361165f57816040517f5b08ba1800000000000000000000000000000000000000000000000000000000815260040161165691906122f1565b60405180910390fd5b80600560008573ffffffffffffffffffffffffffffffffffffffff1673ffffffffffffffffffffffffffffffffffffffff16815260200190815260200160002060008473ffffffffffffffffffffffffffffffffffffffff1673ffffffffffffffffffffffffffffffffffffffff16815260200190815260200160002060006101000a81548160ff0219169083151502179055508173ffffffffffffffffffffffffffffffffffffffff168373ffffffffffffffffffffffffffffffffffffffff167f17307eab39ab6107e8899845ad3d59bd9653f200f220920489ca2b5937696c31836040516117509190612180565b60405180910390a3505050565b60008373ffffffffffffffffffffffffffffffffffffffff163b1115611907578273ffffffffffffffffffffffffffffffffffffffff1663150b7a02868685856040518563ffffffff1660e01b81526004016117bc9493929190613122565b6020604051808303816000875af19250505080156117f857506040513d601f19601f820116820180604052508101906117f59190613183565b60015b61187c573d8060008114611828576040519150601f19603f3d011682016040523d82523d6000602084013e61182d565b606091505b50600081510361187457836040517f64a0ae9200000000000000000000000000000000000000000000000000000000815260040161186b91906122f1565b60405180910390fd5b805160208201fd5b63150b7a0260e01b7bffffffffffffffffffffffffffffffffffffffffffffffffffffffff1916817bffffffffffffffffffffffffffffffffffffffffffffffffffffffff19161461190557836040517f64a0ae920000000000000000000000000000000000000000000000000000000081526004016118fc91906122f1565b60405180910390fd5b505b5050505050565b606060405180602001604052806000815250905090565b60606000600161193484611d23565b01905060008167ffffffffffffffff8111156119535761195261242c565b5b6040519080825280601f01601f1916602001820160405280156119855781602001600182028036833780820191505090505b509050600082602083010190505b6001156119e8578080600190039150507f3031323334353637383961626364656600000000000000000000000000000000600a86061a8153600a85816119dc576119db6131b0565b5b04945060008503611993575b819350505050919050565b60007f01ffc9a7000000000000000000000000000000000000000000000000000000007bffffffffffffffffffffffffffffffffffffffffffffffffffffffff1916827bffffffffffffffffffffffffffffffffffffffffffffffffffffffff1916149050919050565b60006002600083815260200190815260200160002060009054906101000a900473ffffffffffffffffffffffffffffffffffffffff169050919050565b8080611ad35750600073ffffffffffffffffffffffffffffffffffffffff168273ffffffffffffffffffffffffffffffffffffffff1614155b15611c07576000611ae3846110af565b9050600073ffffffffffffffffffffffffffffffffffffffff168373ffffffffffffffffffffffffffffffffffffffff1614158015611b4e57508273ffffffffffffffffffffffffffffffffffffffff168173ffffffffffffffffffffffffffffffffffffffff1614155b8015611b615750611b5f8184610e35565b155b15611ba357826040517fa9fbf51f000000000000000000000000000000000000000000000000000000008152600401611b9a91906122f1565b60405180910390fd5b8115611c0557838573ffffffffffffffffffffffffffffffffffffffff168273ffffffffffffffffffffffffffffffffffffffff167f8c5be1e5ebec7d5bd14f71427d1e84f3dd0314c0f7b2291e5b200ac8c7c3b92560405160405180910390a45b505b836004600085815260200190815260200160002060006101000a81548173ffffffffffffffffffffffffffffffffffffffff021916908373ffffffffffffffffffffffffffffffffffffffff16021790555050505050565b611c6a838383611e76565b611d1e57600073ffffffffffffffffffffffffffffffffffffffff168373ffffffffffffffffffffffffffffffffffffffff1603611cdf57806040517f7e273289000000000000000000000000000000000000000000000000000000008152600401611cd69190612407565b60405180910390fd5b81816040517f177e802f000000000000000000000000000000000000000000000000000000008152600401611d159291906131df565b60405180910390fd5b505050565b600080600090507a184f03e93ff9f4daa797ed6e38ed64bf6a1f0100000000000000008310611d81577a184f03e93ff9f4daa797ed6e38ed64bf6a1f0100000000000000008381611d7757611d766131b0565b5b0492506040810190505b6d04ee2d6d415b85acef81000000008310611dbe576d04ee2d6d415b85acef81000000008381611db457611db36131b0565b5b0492506020810190505b662386f26fc100008310611ded57662386f26fc100008381611de357611de26131b0565b5b0492506010810190505b6305f5e1008310611e16576305f5e1008381611e0c57611e0b6131b0565b5b0492506008810190505b6127108310611e3b576127108381611e3157611e306131b0565b5b0492506004810190505b60648310611e5e5760648381611e5457611e536131b0565b5b0492506002810190505b600a8310611e6d576001810190505b80915050919050565b60008073ffffffffffffffffffffffffffffffffffffffff168373ffffffffffffffffffffffffffffffffffffffff1614158015611f2e57508273ffffffffffffffffffffffffffffffffffffffff168473ffffffffffffffffffffffffffffffffffffffff161480611eef5750611eee8484610e35565b5b80611f2d57508273ffffffffffffffffffffffffffffffffffffffff16611f1583611137565b73ffffffffffffffffffffffffffffffffffffffff16145b5b90509392505050565b826005601f01602090048101928215611fc05791602002820160005b83821115611f9157835183826101000a81548160ff021916908360ff1602179055509260200192600101602081600001049283019260010302611f53565b8015611fbe5782816101000a81549060ff0219169055600101602081600001049283019260010302611f91565b505b509050611fcd91906120af565b5090565b826003601f0160209004810192821561205a5791602002820160005b8382111561202b57835183826101000a81548160ff021916908360ff1602179055509260200192600101602081600001049283019260010302611fed565b80156120585782816101000a81549060ff021916905560010160208160000104928301926001030261202b565b505b50905061206791906120af565b5090565b6040518060a00160405280600590602082028036833780820191505090505090565b6040518060600160405280600390602082028036833780820191505090505090565b5b808211156120c85760008160009055506001016120b0565b5090565b6000604051905090565b600080fd5b600080fd5b60007fffffffff0000000000000000000000000000000000000000000000000000000082169050919050565b612115816120e0565b811461212057600080fd5b50565b6000813590506121328161210c565b92915050565b60006020828403121561214e5761214d6120d6565b5b600061215c84828501612123565b91505092915050565b60008115159050919050565b61217a81612165565b82525050565b60006020820190506121956000830184612171565b92915050565b600081519050919050565b600082825260208201905092915050565b60005b838110156121d55780820151818401526020810190506121ba565b60008484015250505050565b6000601f19601f8301169050919050565b60006121fd8261219b565b61220781856121a6565b93506122178185602086016121b7565b612220816121e1565b840191505092915050565b6000602082019050818103600083015261224581846121f2565b905092915050565b6000819050919050565b6122608161224d565b811461226b57600080fd5b50565b60008135905061227d81612257565b92915050565b600060208284031215612299576122986120d6565b5b60006122a78482850161226e565b91505092915050565b600073ffffffffffffffffffffffffffffffffffffffff82169050919050565b60006122db826122b0565b9050919050565b6122eb816122d0565b82525050565b600060208201905061230660008301846122e2565b92915050565b612315816122d0565b811461232057600080fd5b50565b6000813590506123328161230c565b92915050565b6000806040838503121561234f5761234e6120d6565b5b600061235d85828601612323565b925050602061236e8582860161226e565b9150509250929050565b600080600060608486031215612391576123906120d6565b5b600061239f86828701612323565b93505060206123b086828701612323565b92505060406123c18682870161226e565b9150509250925092565b6000602082840312156123e1576123e06120d6565b5b60006123ef84828501612323565b91505092915050565b6124018161224d565b82525050565b600060208201905061241c60008301846123f8565b92915050565b600080fd5b600080fd5b7f4e487b7100000000000000000000000000000000000000000000000000000000600052604160045260246000fd5b612464826121e1565b810181811067ffffffffffffffff821117156124835761248261242c565b5b80604052505050565b60006124966120cc565b90506124a2828261245b565b919050565b600067ffffffffffffffff8211156124c2576124c161242c565b5b6124cb826121e1565b9050602081019050919050565b82818337600083830152505050565b60006124fa6124f5846124a7565b61248c565b90508281526020810184848401111561251657612515612427565b5b6125218482856124d8565b509392505050565b600082601f83011261253e5761253d612422565b5b813561254e8482602086016124e7565b91505092915050565b600060ff82169050919050565b61256d81612557565b811461257857600080fd5b50565b60008135905061258a81612564565b92915050565b600067ffffffffffffffff8211156125ab576125aa61242c565b5b602082029050919050565b600080fd5b60006125ce6125c984612590565b61248c565b905080602084028301858111156125e8576125e76125b6565b5b835b8181101561261157806125fd888261257b565b8452602084019350506020810190506125ea565b5050509392505050565b600082601f8301126126305761262f612422565b5b600561263d8482856125bb565b91505092915050565b600067ffffffffffffffff8211156126615761266061242c565b5b602082029050919050565b600061267f61267a84612646565b61248c565b90508060208402830185811115612699576126986125b6565b5b835b818110156126c257806126ae888261257b565b84526020840193505060208101905061269b565b5050509392505050565b600082601f8301126126e1576126e0612422565b5b60036126ee84828561266c565b91505092915050565b6000806000806000806000806000806102008b8d03121561271b5761271a6120d6565b5b60006127298d828e01612323565b9a5050602061273a8d828e0161226e565b99505060408b013567ffffffffffffffff81111561275b5761275a6120db565b5b6127678d828e01612529565b98505060606127788d828e0161257b565b97505060806127898d828e0161257b565b96505060a061279a8d828e0161257b565b95505060c06127ab8d828e0161257b565b94505060e06127bc8d828e0161261b565b9350506101806127ce8d828e016126cc565b9250506101e06127e08d828e0161226e565b9150509295989b9194979a5092959850565b60008060408385031215612809576128086120d6565b5b60006128178582860161226e565b92505060206128288582860161226e565b9150509250929050565b61283b81612557565b82525050565b600060059050919050565b600081905092915050565b6000819050919050565b61286a81612557565b82525050565b600061287c8383612861565b60208301905092915050565b6000602082019050919050565b61289e81612841565b6128a8818461284c565b92506128b382612857565b8060005b838110156128e45781516128cb8782612870565b96506128d683612888565b9250506001810190506128b7565b505050505050565b600060039050919050565b600081905092915050565b6000819050919050565b6000602082019050919050565b612922816128ec565b61292c81846128f7565b925061293782612902565b8060005b8381101561296857815161294f8782612870565b965061295a8361290c565b92505060018101905061293b565b505050505050565b600061020082019050612986600083018d6123f8565b612993602083018c6122e2565b81810360408301526129a5818b6121f2565b90506129b4606083018a612832565b6129c16080830189612832565b6129ce60a0830188612832565b6129db60c0830187612832565b6129e860e0830186612895565b6129f6610180830185612919565b612a046101e08301846123f8565b9b9a5050505050505050505050565b612a1c81612165565b8114612a2757600080fd5b50565b600081359050612a3981612a13565b92915050565b60008060408385031215612a5657612a556120d6565b5b6000612a6485828601612323565b9250506020612a7585828601612a2a565b9150509250929050565b600067ffffffffffffffff821115612a9a57612a9961242c565b5b612aa3826121e1565b9050602081019050919050565b6000612ac3612abe84612a7f565b61248c565b905082815260208101848484011115612adf57612ade612427565b5b612aea8482856124d8565b509392505050565b600082601f830112612b0757612b06612422565b5b8135612b17848260208601612ab0565b91505092915050565b60008060008060808587031215612b3a57612b396120d6565b5b6000612b4887828801612323565b9450506020612b5987828801612323565b9350506040612b6a8782880161226e565b925050606085013567ffffffffffffffff811115612b8b57612b8a6120db565b5b612b9787828801612af2565b91505092959194509250565b60008060408385031215612bba57612bb96120d6565b5b6000612bc885828601612323565b9250506020612bd985828601612323565b9150509250929050565b600081519050919050565b600082825260208201905092915050565b6000819050602082019050919050565b612c188161224d565b82525050565b6000612c2a8383612c0f565b60208301905092915050565b6000602082019050919050565b6000612c4e82612be3565b612c588185612bee565b9350612c6383612bff565b8060005b83811015612c94578151612c7b8882612c1e565b9750612c8683612c36565b925050600181019050612c67565b5085935050505092915050565b60006020820190508181036000830152612cbb8184612c43565b905092915050565b7f4e487b7100000000000000000000000000000000000000000000000000000000600052602260045260246000fd5b60006002820490506001821680612d0a57607f821691505b602082108103612d1d57612d1c612cc3565b5b50919050565b6000606082019050612d3860008301866122e2565b612d4560208301856123f8565b612d5260408301846122e2565b949350505050565b60008190508160005260206000209050919050565b60006020601f8301049050919050565b600082821b905092915050565b600060088302612dbc7fffffffffffffffffffffffffffffffffffffffffffffffffffffffffffffffff82612d7f565b612dc68683612d7f565b95508019841693508086168417925050509392505050565b6000819050919050565b6000612e03612dfe612df98461224d565b612dde565b61224d565b9050919050565b6000819050919050565b612e1d83612de8565b612e31612e2982612e0a565b848454612d8c565b825550505050565b600090565b612e46612e39565b612e51818484612e14565b505050565b5b81811015612e7557612e6a600082612e3e565b600181019050612e57565b5050565b601f821115612eba57612e8b81612d5a565b612e9484612d6f565b81016020851015612ea3578190505b612eb7612eaf85612d6f565b830182612e56565b50505b505050565b600082821c905092915050565b6000612edd60001984600802612ebf565b1980831691505092915050565b6000612ef68383612ecc565b9150826002028217905092915050565b612f0f8261219b565b67ffffffffffffffff811115612f2857612f2761242c565b5b612f328254612cf2565b612f3d828285612e79565b600060209050601f831160018114612f705760008415612f5e578287015190505b612f688582612eea565b865550612fd0565b601f198416612f7e86612d5a565b60005b82811015612fa657848901518255600182019150602085019450602081019050612f81565b86831015612fc35784890151612fbf601f891682612ecc565b8355505b6001600288020188555050505b505050505050565b7f4e6f7420617574686f72697a6564000000000000000000000000000000000000600082015250565b600061300e600e836121a6565b915061301982612fd8565b602082019050919050565b6000602082019050818103600083015261303d81613001565b9050919050565b600060408201905061305960008301856123f8565b61306660208301846123f8565b9392505050565b600081905092915050565b60006130838261219b565b61308d818561306d565b935061309d8185602086016121b7565b80840191505092915050565b60006130b58285613078565b91506130c18284613078565b91508190509392505050565b600081519050919050565b600082825260208201905092915050565b60006130f4826130cd565b6130fe81856130d8565b935061310e8185602086016121b7565b613117816121e1565b840191505092915050565b600060808201905061313760008301876122e2565b61314460208301866122e2565b61315160408301856123f8565b818103606083015261316381846130e9565b905095945050505050565b60008151905061317d8161210c565b92915050565b600060208284031215613199576131986120d6565b5b60006131a78482850161316e565b91505092915050565b7f4e487b7100000000000000000000000000000000000000000000000000000000600052601260045260246000fd5b60006040820190506131f460008301856122e2565b61320160208301846123f8565b939250505056fea2646970667358221220780b071f1c9deb007718e82d226a75acd1bae64312b3e78b8c0edd983859bc4364736f6c63430008140033",
  "linkReferences": {},
  "deployedLinkReferences": {}
}